{"abi":[{"type":"function","name":"hash","inputs":[{"name":"_c","type":"uint8"},{"name":"_salt","type":"uint256"}],"outputs":[{"name":"","type":"bytes32"}],"stateMutability":"view"}],"bytecode":{"object":"0x6080604052348015600f57600080fd5b5060a58061001e6000396000f30060806040526004361060225760003560e01c63ffffffff16806367ef4c13146027575b600080fd5b348015603257600080fd5b50604260ff600435166024356054565b60408051918252519081900360200190f35b6040805160ff841660f81b8152600181018390529051908190036021019020929150505600a165627a7a72305820347f19d7faf75ede2d0e017377d2b13949ef14edc00e7007eb46975704bc03f50029","linkReferences":{}},"methodIdentifiers":{"hash(uint8,uint256)":"67ef4c13"},"id":0}