{"abi":[{"type":"constructor","inputs":[{"name":"_c1Hash","type":"bytes32"},{"name":"_j2","type":"address"}],"stateMutability":"payable"},{"type":"function","name":"TIMEOUT","inputs":[],"outputs":[{"name":"","type":"uint256"}],"stateMutability":"view"},{"type":"function","name":"c1Hash","inputs":[],"outputs":[{"name":"","type":"bytes32"}],"stateMutability":"view"},{"type":"function","name":"c2","inputs":[],"outputs":[{"name":"","type":"uint8"}],"stateMutability":"view"},{"type":"function","name":"j1","inputs":[],"outputs":[{"name":"","type":"address"}],"stateMutability":"view"},{"type":"function","name":"j1Timeout","inputs":[],"outputs":[],"stateMutability":"nonpayable"},{"type":"function","name":"j2","inputs":[],"outputs":[{"name":"","type":"address"}],"stateMutability":"view"},{"type":"function","name":"j2Timeout","inputs":[],"outputs":[],"stateMutability":"nonpayable"},{"type":"function","name":"lastAction","inputs":[],"outputs":[{"name":"","type":"uint256"}],"stateMutability":"view"},{"type":"function","name":"play","inputs":[{"name":"_c2","type":"uint8"}],"outputs":[],"stateMutability":"payable"},{"type":"function","name":"solve","inputs":[{"name":"_c1","type":"uint8"},{"name":"_salt","type":"uint256"}],"outputs":[],"stateMutability":"nonpayable"},{"type":"function","name":"stake","inputs":[],"outputs":[{"name":"","type":"uint256"}],"stateMutability":"view"},{"type":"function","name":"win","inputs":[{"name":"_c1","type":"uint8"},{"name":"_c2","type":"uint8"}],"outputs":[{"name":"w","type":"bool"}],"stateMutability":"view"}],"bytecode":{"object":"0x6080604081815261012c6005558061066f8339810160405280516020909101513460045560008054600160a060020a0319908116331790915560018054600160a060020a039093169290911691909117905560025542600655610608806100676000396000f30060806040526004361061009d5760003560e01c63ffffffff1680630c4395b9146100a2578063294914a4146100d75780633a4b66f1146100ee57806348e257cb146101155780634d03e3d21461014e57806353a04b051461016357806380985af91461017157806389f71d53146101a2578063a5ddec7c146101b7578063c37597c6146101d5578063c8391142146101ea578063f56f48f2146101ff575b600080fd5b3480156100ae57600080fd5b506100c360ff60043581169060243516610214565b604080519115158252519081900360200190f35b3480156100e357600080fd5b506100ec6102d0565b005b3480156100fa57600080fd5b50610103610330565b60408051918252519081900360200190f35b34801561012157600080fd5b5061012a610336565b6040518082600581111561013a57fe5b60ff16815260200191505060405180910390f35b34801561015a57600080fd5b5061010361033f565b6100ec60ff60043516610345565b34801561017d57600080fd5b506101866103c5565b60408051600160a060020a039092168252519081900360200190f35b3480156101ae57600080fd5b506101036103d4565b3480156101c357600080fd5b506100ec60ff600435166024356103da565b3480156101e157600080fd5b50610186610561565b3480156101f657600080fd5b506100ec610570565b34801561020b57600080fd5b506101036105d6565b600081600581111561022257fe5b83600581111561022e57fe5b141561023c575060006102ca565b600083600581111561024a57fe5b1415610258575060006102ca565b600282600581111561026657fe5b81151561026f57fe5b06600284600581111561027e57fe5b81151561028757fe5b0614156102ae5781600581111561029a57fe5b8360058111156102a657fe5b1090506102ca565b8160058111156102ba57fe5b8360058111156102c657fe5b1190505b92915050565b600060035460ff1660058111156102e357fe5b146102ed57600080fd5b6005546006540142116102ff57600080fd5b60008054600454604051600160a060020a039092169281156108fc029290818181858888f150506000600455505050565b60045481565b60035460ff1681565b60025481565b600060035460ff16600581111561035857fe5b1461036257600080fd5b600081600581111561037057fe5b141561037b57600080fd5b600454341461038957600080fd5b600154600160a060020a031633146103a057600080fd5b6003805482919060ff191660018360058111156103b957fe5b02179055505042600655565b600154600160a060020a031681565b60065481565b60008260058111156103e857fe5b14156103f357600080fd5b600060035460ff16600581111561040657fe5b141561041157600080fd5b600054600160a060020a0316331461042857600080fd5b600254604051839083908083600581111561043f57fe5b60ff1660f81b81526001018281526020019250505060405180910390206000191614151561046c57600080fd5b60035461047d90839060ff16610214565b156104b85760008054600454604051600160a060020a0390921692600290910280156108fc02929091818181858888f1935050505050610558565b6003546104c89060ff1683610214565b1561050257600154600454604051600160a060020a0390921691600290910280156108fc02916000818181858888f1935050505050610558565b60008054600454604051600160a060020a039092169281156108fc029290818181858888f15050600154600454604051600160a060020a03909216945080156108fc02935091506000818181858888f150505050505b50506000600455565b600054600160a060020a031681565b600060035460ff16600581111561058357fe5b141561058e57600080fd5b6005546006540142116105a057600080fd5b600154600454604051600160a060020a0390921691600290910280156108fc02916000818181858888f150506000600455505050565b600554815600a165627a7a72305820fc790012f2efd4a8ffdc1b4cd9283f351513c8a632b1517839781339a6545db70029","linkReferences":{}},"methodIdentifiers":{"TIMEOUT()":"f56f48f2","c1Hash()":"4d03e3d2","c2()":"48e257cb","j1()":"c37597c6","j1Timeout()":"c8391142","j2()":"80985af9","j2Timeout()":"294914a4","lastAction()":"89f71d53","play(uint8)":"53a04b05","solve(uint8,uint256)":"a5ddec7c","stake()":"3a4b66f1","win(uint8,uint8)":"0c4395b9"},"id":0}